:04000000F7EFFEF028
:020000040001F9
:10FDDA00959A120096861200969A96881200968A2A
:10FDEA0096881200000143EFFFF09586090E926E85
:10FDFA0012000E01C891958A120096802FECFFF02E
:10FE0A00120096842FECFFF012002FECFFF091CF36
:10FE1A0001F001501200016E01C091FF2FECFFF0BA
:10FE2A0012000E01D3518F0B6009D36FD9831200D0
:10FE3A000F011493149513831385128312851200EC
:10FE4A0096BC2AEFFFF02DEFFFF0010E2EEFFFF028
:10FE5A00000E12000E01C8A135EFFFF037EFFFF0D8
:10FE6A002FEFFFF0C8911200090E0E01B26F0F0EAC
:10FE7A00EB6F0A0EB36F100EEC6F120016ECFFF068
:10FE8A0039ECFFF01DECFFF0FAECFEF0010E026E09
:10FE9A00600E036E490E66ECFFF0000E026E490E0C
:10FEAA00A1ECFFF0030E0C6E8A0E0B6E560EE82EB6
:10FEBA00FED70B2EFCD70C2EFAD752EFFFF000EF2D
:10FECA0000F0046E04500424FE0B056EFEECFEF0F6
:10FEDA0002ECFFF0055010ECFFF025ECFFF00009F2
:10FEEA00D8B47AEFFFF07CEFFFF07EEFFFF0A0EFDF
:10FEFA00FFF0025010ECFFF025ECFFF00009D8B437
:10FF0A0089EFFFF08BEFFFF08DEFFFF0A0EFFFF02E
:10FF1A00035010ECFFF025ECFFF00009D8B498EF7D
:10FF2A00FFF09AEFFFF09CEFFFF0A0EFFFF006EC76
:10FF3A00FFF0EDECFEF012000A6E0A500A24FE0BE6
:10FF4A00066ED8800A34076EFEECFEF002ECFFF073
:10FF5A00065010ECFFF025ECFFF00009D8B4B8EF1A
:10FF6A00FFF0BAEFFFF0C0EFFFF0000E036E420E93
:10FF7A00026EFFEFFFF0025010ECFFF025ECFFF0ED
:10FF8A000009D8B4CBEFFFF0CDEFFFF0CFEFFFF0D1
:10FF9A00BAEFFFF002ECFFF0075010ECFFF025EC8F
:10FFAA00FFF00009D8B4DCEFFFF0DEEFFFF0E0EF7E
:10FFBA00FFF0BAEFFFF0EFECFEF00AECFFF0086E8C
:10FFCA00F1ECFEF02FECFFF0EFECFEF00AECFFF0A4
:10FFDA00096EF4ECFEF02FECFFF006ECFFF0EDEC0E
:10FFEA00FEF00850056E046A09500424026E000EE1
:06FFFA000520036E120059
:020000040020DA
:10000000FFFFFFFFFFFFFFFFFFFFFFFFFFFFFFFF00
:10001000FFFFFFFFFFFFFFFFFFFFFFFFFFFFFFFFF0
:10002000FFFFFFFFFFFFFFFFFFFFFFFFFFFFFFFFE0
:10003000FFFFFFFFFFFFFFFFFFFFFFFFFFFFFFFFD0
:10004000FFFFFFFFFFFFFFFFFFFFFFFFFFFFFFFFC0
:10005000FFFFFFFFFFFFFFFFFFFFFFFFFFFFFFFFB0
:10006000FFFFFFFFFFFFFFFFFFFFFFFFFFFFFFFFA0
:10007000FFFFFFFFFFFFFFFFFFFFFFFFFFFFFFFF90
:10008000FFFFFFFFFFFFFFFFFFFFFFFFFFFFFFFF80
:10009000FFFFFFFFFFFFFFFFFFFFFFFFFFFFFFFF70
:1000A000FFFFFFFFFFFFFFFFFFFFFFFFFFFFFFFF60
:1000B000FFFFFFFFFFFFFFFFFFFFFFFFFFFFFFFF50
:1000C000FFFFFFFFFFFFFFFFFFFFFFFFFFFFFFFF40
:1000D000FFFFFFFFFFFFFFFFFFFFFFFFFFFFFFFF30
:1000E000FFFFFFFFFFFFFFFFFFFFFFFFFFFFFFFF20
:1000F000FFFFFFFFFFFFFFFFFFFFFFFFFFFFFFFF10
:020000040030CA
:0C000000FFFFFFFF9FFFFFFFFFFFFFFF60
:00000001FF
