:04000000D2EFFDF04E
:020000040001F9
:10FB9C00959A1200968612000001C0EFFEF0958631
:10FBAC00090E926E12000E01C891958A1200968071
:10FBBC0014ECFEF01200968414ECFEF01200969AEF
:10FBCC00968814ECFEF01200968A968814ECFEF0DF
:10FBDC00120014ECFEF091CF01F001501200016EF6
:10FBEC0001C091FF14ECFEF012000E01D3518F0BEB
:10FBFC006009D36FD98312000F01149314951383EA
:10FC0C00138512831285120096BC0FEFFEF012EFD3
:10FC1C00FEF0010E13EFFEF0000E12000E01C8A153
:10FC2C001AEFFEF01CEFFEF014EFFEF0C89112007C
:10FC3C00090E0E01B26F0F0EEB6F0A0EB36F100EA2
:10FC4C00EC6F1200026E080E036E000E046ED8905C
:10FC5C0002340434046ED89002360150045CD8A0EF
:10FC6C003AEFFEF03CEFFEF03EEFFEF00150045E8A
:10FC7C00032E2DEFFEF004501200026E000E046EE7
:10FC8C000150D8B44CEFFEF04EEFFEF06FEFFEF0EB
:10FC9C00010E036E55EFFEF0D8900136032A01AE2B
:10FCAC005AEFFEF05CEFFEF052EFFEF0D890043607
:10FCBC000150025CD8A065EFFEF067EFFEF06AEF32
:10FCCC00FEF00150025E0480D8900132032E5CEFEE
:10FCDC00FEF004501200066E06500624FE0B076E52
:10FCEC00D9ECFDF0DDECFDF00750F5ECFDF00AEC85
:10FCFC00FEF00009D8B485EFFEF087EFFEF089EF37
:10FD0C00FEF0BFEFFEF00250F5ECFDF00AECFEF059
:10FD1C000009D8B494EFFEF096EFFEF098EFFEF0E9
:10FD2C00BFEFFEF0000E086EB2EFFEF003C0D9FF7D
:10FD3C0004C0DAFFDF50F5ECFDF0034A042A0AECAC
:10FD4C00FEF00009D8B4ADEFFEF0AFEFFEF0B1EF6E
:10FD5C00FEF0BFEFFEF0082A0550085CD8A0B9EF02
:10FD6C00FEF0BBEFFEF09CEFFEF0E1ECFDF0CEEC14
:10FD7C00FDF01200FBECFDF01EECFEF002ECFEF0D0
:10FD8C00D5ECFDF0000E376E0C0E396E000E386E91
:10FD9C00D9EFFEF02A0E3824D96EDA6A000EDA2278
:10FDAC0038C0DFFF382A3950385CD8A0E0EFFEF0BD
:10FDBC00E2EFFEF0D0EFFEF037C009F02A0E0A6E2B
:10FDCC00000E0B6E39C00CF0080E0D6E500E19ECB7
:10FDDC00FFF0366E37C002F01E0E036E000E046E7E
:10FDEC0039C005F0500E84ECFFF036C009F02A0E35
:10FDFC000A6E000E0B6E39C00CF0080E0D6E500E14
:10FE0C0019ECFFF0366E1A0E1D6E5E0E1C6E6E0E29
:10FE1C00E82EFED71C2EFCD71D2EFAD700D0F0EF03
:10FE2C00FEF000EF00F0176E0DC001F0095043EC2E
:10FE3C00FEF0196E0DC001F00C5043ECFEF01924CD
:10FE4C00186E0DC001F0095028ECFEF00E6E0E502D
:10FE5C000D5C1B6E79EFFFF0000E1A6E45EFFFF094
:10FE6C000AC0D9FF0BC0DAFF0F0E1A24E16EE26A4A
:10FE7C00000EE222DFCFE7FF0A4A0B2A1A2A1B5098
:10FE8C001A5CD8A04CEFFFF04EEFFFF036EFFFF00E
:10FE9C0009C002F00F0E036E000E046E1BC005F0BD
:10FEAC00175071ECFEF01B500C5E1B5009260DC058
:10FEBC0001F00C5043ECFEF00009D8B468EFFFF0F1
:10FECC006AEFFFF06EEFFFF00DC01BF070EFFFF06C
:10FEDC000CC01BF0192A1A0E0E6EF80EE82EFED767
:10FEEC000E2EFCD700D01950185CD8B080EFFFF064
:10FEFC0082EFFFF032EFFFF009501200106E10503D
:10FF0C001024FE0B0D6ED88010340E6ED9ECFDF063
:10FF1C00DDECFDF00D50F5ECFDF00AECFEF0000907
:10FF2C00D8B49BEFFFF09DEFFFF09FEFFFF0FFEFDA
:10FF3C00FFF00250F5ECFDF00AECFEF00009D8B42D
:10FF4C00AAEFFFF0ACEFFFF0AEEFFFF0FFEFFFF02A
:10FF5C00DDECFDF00E50F5ECFDF00AECFEF00009C6
:10FF6C00D8B4BBEFFFF0BDEFFFF0BFEFFFF0FFEF3A
:10FF7C00FFF0000E0F6ED1EFFFF0D0ECFDF0EFECC8
:10FF8C00FDF003C0D9FF04C0DAFFDF6E034A042A78
:10FF9C00E5ECFDF00F2AFF0E066EFF0E076E055006
:10FFAC00086E096A06500826075009220F500A6E7F
:10FFBC000B6A08500A5C0B50800A0C6E0950800AC0
:10FFCC000C58D8A0ECEFFFF0EEEFFFF0C3EFFFF012
:10FFDC00D0ECFDF0EFECFDF003C0D9FF04C0DAFF6C
:10FFEC00DF6E034A042AEAECFDF0E1ECFDF0CEEC06
:04FFFC00FDF0120002
:020000040020DA
:10000000FFFFFFFFFFFFFFFFFFFFFFFFFFFFFFFF00
:10001000FFFFFFFFFFFFFFFFFFFFFFFFFFFFFFFFF0
:10002000FFFFFFFFFFFFFFFFFFFFFFFFFFFFFFFFE0
:10003000FFFFFFFFFFFFFFFFFFFFFFFFFFFFFFFFD0
:10004000FFFFFFFFFFFFFFFFFFFFFFFFFFFFFFFFC0
:10005000FFFFFFFFFFFFFFFFFFFFFFFFFFFFFFFFB0
:10006000FFFFFFFFFFFFFFFFFFFFFFFFFFFFFFFFA0
:10007000FFFFFFFFFFFFFFFFFFFFFFFFFFFFFFFF90
:10008000FFFFFFFFFFFFFFFFFFFFFFFFFFFFFFFF80
:10009000FFFFFFFFFFFFFFFFFFFFFFFFFFFFFFFF70
:1000A000FFFFFFFFFFFFFFFFFFFFFFFFFFFFFFFF60
:1000B000FFFFFFFFFFFFFFFFFFFFFFFFFFFFFFFF50
:1000C000FFFFFFFFFFFFFFFFFFFFFFFFFFFFFFFF40
:1000D000FFFFFFFFFFFFFFFFFFFFFFFFFFFFFFFF30
:1000E000FFFFFFFFFFFFFFFFFFFFFFFFFFFFFFFF20
:1000F000FFFFFFFFFFFFFFFFFFFFFFFFFFFFFFFF10
:020000040030CA
:0C000000FFFFFFFF9FFFFFFFFFFFFFFF60
:00000001FF
