:040000002BEFFAF0F8
:020000040001F9
:10F44E00959A1200968612000001D7EFFAF0958673
:10F45E009F0E926E12000E01C891958A1200968030
:10F46E006BECFAF0120096846BECFAF01200969A9E
:10F47E0096886BECFAF01200968A96886BECFAF08E
:10F48E0012006BECFAF091CF01F001501200016EF8
:10F49E0001C091FF6BECFAF012000F01149314955A
:10F4AE001383138512000E01D3518F0B6009D36F96
:10F4BE00D987120096BC66EFFAF069EFFAF0010EEA
:10F4CE006AEFFAF0000E12000E01C8A171EFFAF009
:10F4DE0073EFFAF06BEFFAF0C8911200090E0E01FD
:10F4EE00B26F0F0EEB6F0A0EB36F100EEC6F1200B1
:10F4FE000C6ED8800C340D6E32ECFAF036ECFAF05D
:10F50E000D504EECFAF061ECFAF00009D8B492EF1F
:10F51E00FAF094EFFAF096EFFAF0D6EFFAF0000E5A
:10F52E000E6EA8EFFAF029ECFAF048ECFAF002C0F1
:10F53E00D9FF03C0DAFFDF6E024A032A3EECFAF06F
:10F54E000E2AFF0E056EFF0E066E0450076E086A39
:10F55E0005500726065008220E50096E0A6A0750FB
:10F56E00095C0A50800A0B6E0850800A0B58D8A00E
:10F57E00C3EFFAF0C5EFFAF09AEFFAF029ECFAF0D1
:10F58E0048ECFAF002C0D9FF03C0DAFFDF6E024A80
:10F59E00032A43ECFAF03AECFAF027ECFAF01200F8
:10F5AE005AECFAF075ECFAF054ECFAF02EECFAF0A4
:10F5BE00100E4C6E000E4B6E330E476E330E486EB1
:10F5CE00530E496E400E4A6E4F0E026E000E036EC3
:10F5DE00020E046E4D0E7FECFAF050504FC041F00B
:10F5EE00426A41C042F0416A41104D6E42504E6E29
:10F5FE004DC001F04EC002F0036A046A000E44ECE6
:10F60E00FBF001C028F002C029F003C02AF004C0AC
:10F61E002BF04BC001F04CC002F0036A046A000EDE
:10F62E0044ECFBF001C013F002C014F003C015F05F
:10F63E0004C016F047C00FF048C010F049C011F0DA
:10F64E004AC012F01EECFCF00FC02CF010C02DF0D2
:10F65E0011C02EF012C02FF0EBECFDF0030E426E37
:10F66E008A0E416E560EE82EFED7412EFCD7422E44
:10F67E00FAD7EBEFFAF000EF00F0096E0950D8B4AC
:10F68E004BEFFBF04DEFFBF06FEFFBF004BE54EFD2
:10F69E00FBF052EFFBF06FEFFBF001C005F002C084
:10F6AE0006F003C007F004C008F0051E061E071E74
:10F6BE00081E052A000E06220722082205C00BF09E
:10F6CE0006C00CF007C00DF008C00EF077EFFBF08F
:10F6DE0001C00BF002C00CF003C00DF004C00EF020
:10F6EE000150021003100410D8A480EFFBF082EF3B
:10F6FE00FBF08CEFFBF0000E016E000E026E000EA2
:10F70E00036E000E046E1DEFFCF0960E0A6E96EF61
:10F71E00FBF00A2AD8900E320D320C320B32000E4C
:10F72E000B14056E000E0C14066E000E0D14076EF3
:10F73E00FE0E0E14086E0550061007100810D8A401
:10F74E00ABEFFBF0ADEFFBF090EFFBF0BBEFFBF0A0
:10F75E000A2A010E0B26000E0C220D220E22D89024
:10F76E000E320D320C320B32000E0B14056E000EE3
:10F77E000C14066E000E0D14076EFF0E0E14086E9E
:10F78E000550061007100810D8A4D0EFFBF0D2EFEA
:10F79E00FBF0AFEFFBF0DAEFFBF00A06D8900B367A
:10F7AE000C360D360E360DBEDFEFFBF0E1EFFBF043
:10F7BE00E9EFFBF0020E0A60E7EFFBF0E9EFFBF07A
:10F7CE00D4EFFBF00AB0EEEFFBF0F0EFFBF0F1EF51
:10F7DE00FBF00D9ED8900A320AC005F0066A076A41
:10F7EE00086A05C008F0076A066A056A05500B121A
:10F7FE0006500C1207500D1208500E120950D8B4B4
:10F80E000BEFFCF00DEFFCF015EFFCF004BE14EF67
:10F81E00FCF012EFFCF015EFFCF00E8E0BC001F0B9
:10F82E000CC002F00DC003F00EC004F01200125016
:10F83E00800B1F6E12501224266E11AE29EFFCF0B3
:10F84E002BEFFCF02CEFFCF026802650D8B432EFD4
:10F85E00FCF034EFFCF049EFFCF02628D8A43AEF88
:10F86E00FCF03CEFFCF044EFFCF0000E0F6E000ECF
:10F87E00106E000E116E000E126E118E000E126EB4
:10F88E0051EFFCF0000E0F6E000E106E000E116E9A
:10F89E00000E126E1650800B1F1A16501624276E6D
:10F8AE0015AE5CEFFCF05EEFFCF05FEFFCF0278036
:10F8BE002750D8B465EFFCF067EFFCF07CEFFCF05E
:10F8CE002728D8A46DEFFCF06FEFFCF077EFFCF07B
:10F8DE00000E136E000E146E000E156E000E166ED8
:10F8EE00158E000E166E84EFFCF0000E136E000ED9
:10F8FE00146E000E156E000E166E135014101510A9
:10F90E001610D8A48DEFFCF08FEFFCF0A7EFFCF0F3
:10F91E00000E0F6E000E106E000E116E000E126EA7
:10F92E00800E11127F0E12121F5012120FC00FF006
:10F93E0010C010F011C011F012C012F0EAEFFDF07D
:10F94E002650D8A4ADEFFCF0AFEFFCF0B9EFFCF011
:10F95E00000E0F6E000E106E000E116E000E126E67
:10F96E00EAEFFDF0275026C017F0186A175E000E5A
:10F97E00185A7F0E1724206E000E1820216E0FC00D
:10F98E001BF010C01CF011C01DF012C01EF0000EB6
:10F99E000F6E000E106E000E116E000E126E000E27
:10F9AE00226E000E236E000E246E000E256E000ECB
:10F9BE00276E1AEFFDF02750D8B4E8EFFCF0EAEF0F
:10F9CE00FCF001EFFDF0D8901B361C361D361E36AE
:10F9DE00D8900F3610361136123625AEF9EFFCF0F0
:10F9EE00FBEFFCF0FCEFFCF00F80D89022362336B4
:10F9FE002436253613501B5C14501C5815501D58B8
:10FA0E0016501E58D8A00EEFFDF010EFFDF019EFB6
:10FA1E00FDF0258C13501B5E14501C5A15501D5AA8
:10FA2E0016501E5A272A190E276420EFFDF022EFDA
:10FA3E00FDF0E2EFFCF01B501C101D101E10D8B490
:10FA4E002BEFFDF02DEFFDF045EFFDF0228045EFA1
:10FA5E00FDF0D8900F3610361136123625AE3AEF2D
:10FA6E00FDF03CEFFDF03DEFFDF00F80D89022361B
:10FA7E002336243625362006D8A0210611AE4AEFAD
:10FA8E00FDF04CEFFDF030EFFDF0000E276E25AED1
:10FA9E0053EFFDF055EFFDF079EFFDF0FF0E221460
:10FAAE00176EFF0E2314186EFF0E2414196E7F0EA0
:10FABE0025141A6E1750181019101A10D8B46AEFB0
:10FACE00FDF06CEFFDF070EFFDF0010E276E79EF9B
:10FADE00FDF00FA075EFFDF077EFFDF079EFFDF083
:10FAEE006CEFFDF02750D8B47FEFFDF081EFFDF005
:10FAFE00A5EFFDF0010E0F26000E1022112212228C
:10FB0E0012A08CEFFDF08EEFFDF0A5EFFDF00FC013
:10FB1E0017F010C018F011C019F012C01AF01A34F4
:10FB2E001A3219321832173217C00FF018C010F0EF
:10FB3E0019C011F01AC012F0204A212A21BEB0EFCE
:10FB4E00FDF0215008E12028D8A0B0EFFDF0B2EF73
:10FB5E00FDF0BDEFFDF0000E216E2068000E0F6E61
:10FB6E00000E106E000E116E000E126E21BECAEF48
:10FB7E00FDF0215006E12004D8B0C8EFFDF0CAEF29
:10FB8E00FDF0D8EFFDF0000E216E000E206E000E7F
:10FB9E000F6E000E106E000E116E000E126E000E25
:10FBAE001F6E20C026F026A0DFEFFDF0E1EFFDF086
:10FBBE00E4EFFDF0118EE5EFFDF0119ED8902630AA
:10FBCE00126E9BEFFCF012002B50800B346E2B50FC
:10FBDE002B243A6E2AAEF6EFFDF0F8EFFDF0F9EFBA
:10FBEE00FDF03A803A50D8B4FFEFFDF001EFFEF091
:10FBFE0014EFFEF03A28D8A407EFFEF009EFFEF05E
:10FC0E0011EFFEF0000E286E000E296E000E2A6E09
:10FC1E00000E2B6E2A8E1CEFFEF0000E286E000ECC
:10FC2E00296E000E2A6E000E2B6E2F50800B341A8A
:10FC3E002F502F24396E2EAE27EFFEF029EFFEF057
:10FC4E002AEFFEF039803950D8B430EFFEF032EFA3
:10FC5E00FEF045EFFEF03928D8A438EFFEF03AEF6B
:10FC6E00FEF042EFFEF0000E2C6E000E2D6E000E1A
:10FC7E002E6E000E2F6E2E8E4DEFFEF0000E2C6EA1
:10FC8E00000E2D6E000E2E6E000E2F6E3950D8B453
:10FC9E0053EFFEF055EFFEF05DEFFEF03A50D8A4B4
:10FCAE005BEFFEF05DEFFEF067EFFEF0000E286EEC
:10FCBE00000E296E000E2A6E000E2B6EFFEFFFF067
:10FCCE002E502802F3CF3FF0F4CF40F03F50356E68
:10FCDE00366A376A386A40503B6E3C6A3D6A3E6A05
:10FCEE002D502902F3CF3FF0F4CF40F03F50352690
:10FCFE00000E36223722382240503B26000E3C2280
:10FD0E003D223E222C502A02F3CF3FF0F4CF40F09A
:10FD1E003F503526000E36223722382240503B26E1
:10FD2E00000E3C223D223E2237C038F036C037F05E
:10FD3E0035C036F0356A2C502902F3CF3FF0F4CFA0
:10FD4E0040F03F50352640503622000E3722000E2E
:10FD5E0038222D502802F3CF3FF0F4CF40F03F5021
:10FD6E00352640503622000E3722000E382237C07C
:10FD7E0038F036C037F035C036F0356A2C502802D0
:10FD8E00F3CF3FF0F4CF40F03F50352640503622AF
:10FD9E00000E3722000E38222E502902F3CF3FF0EC
:10FDAE00F4CF40F03F503B2640503C22000E3D2207
:10FDBE00000E3E222D502A02F3CF3FF0F4CF40F03A
:10FDCE003F503B2640503C22000E3D22000E3E226C
:10FDDE002E502A02F3CF3FF0F4CF40F03F50306E5A
:10FDEE004050316E326A336A32C033F031C032F075
:10FDFE0030C031F0306A30503B2631503C22325008
:10FE0E003D2233503E2235C030F036C031F037C07F
:10FE1E0032F038C033F0190E1AEFFFF0D8903332AB
:10FE2E00323231323032E82E15EFFFF030503B26B1
:10FE3E0031503C2232503D2233503E2237C038F0F2
:10FE4E0036C037F035C036F0356A39503AC030F02A
:10FE5E00316A3026000E3122820E30243F6EFF0EA4
:10FE6E003120406E50EFFFF0D8903B363C363D3699
:10FE7E003E3638AE45EFFFF047EFFFF048EFFFF0AC
:10FE8E003B80D89035363636373638363F06D8A0D2
:10FE9E0040063DAE55EFFFF057EFFFF03BEFFFF0A2
:10FEAE00000E396E38AE5EEFFFF060EFFFF084EFBC
:10FEBE00FFF0FF0E3514306EFF0E3614316EFF0E4E
:10FECE003714326E7F0E3814336E305031103210BC
:10FEDE003310D8B475EFFFF077EFFFF07BEFFFF044
:10FEEE00010E396E84EFFFF03BA080EFFFF082EF42
:10FEFE00FFF084EFFFF077EFFFF03950D8B48AEFC0
:10FF0E00FFF08CEFFFF0B0EFFFF0010E3B26000E7E
:10FF1E003C223D223E223EA097EFFFF099EFFFF0EC
:10FF2E00B0EFFFF03BC030F03CC031F03DC032F0DE
:10FF3E003EC033F03334333232323132303230C0AD
:10FF4E003BF031C03CF032C03DF033C03EF03F4A92
:10FF5E00402A40BEBBEFFFF0405008E13F28D8A03A
:10FF6E00BBEFFFF0BDEFFFF0C7EFFFF0000E3B6EF3
:10FF7E00000E3C6E800E3D6E7F0E3E6EF5EFFFF076
:10FF8E0040BED4EFFFF0405006E13F04D8B0D2EFB0
:10FF9E00FFF0D4EFFFF0E0EFFFF0000E3B6E000E2F
:10FFAE003C6E000E3D6E000E3E6E000E346EF5EF92
:10FFBE00FFF03FC03AF0FF0E3B16FF0E3C167F0ED1
:10FFCE003D16000E3E163AA0EFEFFFF0F1EFFFF0F8
:10FFDE00F2EFFFF03D8ED8903A303E6E34503E1226
:10FFEE003BC028F03CC029F03DC02AF03EC02BF0AB
:02FFFE001200EF
:020000040020DA
:10000000FFFFFFFFFFFFFFFFFFFFFFFFFFFFFFFF00
:10001000FFFFFFFFFFFFFFFFFFFFFFFFFFFFFFFFF0
:10002000FFFFFFFFFFFFFFFFFFFFFFFFFFFFFFFFE0
:10003000FFFFFFFFFFFFFFFFFFFFFFFFFFFFFFFFD0
:10004000FFFFFFFFFFFFFFFFFFFFFFFFFFFFFFFFC0
:10005000FFFFFFFFFFFFFFFFFFFFFFFFFFFFFFFFB0
:10006000FFFFFFFFFFFFFFFFFFFFFFFFFFFFFFFFA0
:10007000FFFFFFFFFFFFFFFFFFFFFFFFFFFFFFFF90
:10008000FFFFFFFFFFFFFFFFFFFFFFFFFFFFFFFF80
:10009000FFFFFFFFFFFFFFFFFFFFFFFFFFFFFFFF70
:1000A000FFFFFFFFFFFFFFFFFFFFFFFFFFFFFFFF60
:1000B000FFFFFFFFFFFFFFFFFFFFFFFFFFFFFFFF50
:1000C000FFFFFFFFFFFFFFFFFFFFFFFFFFFFFFFF40
:1000D000FFFFFFFFFFFFFFFFFFFFFFFFFFFFFFFF30
:1000E000FFFFFFFFFFFFFFFFFFFFFFFFFFFFFFFF20
:1000F000FFFFFFFFFFFFFFFFFFFFFFFFFFFFFFFF10
:020000040030CA
:0C000000FFFFFFFF9FFFFFFFFFFFFFFF60
:00000001FF
