:0400000031EFFFF0ED
:020000040001F9
:10FE5A00959A120096861200000185EFFFF09586AA
:10FE6A009F0E926E12000E01C891958A120096801A
:10FE7A0071ECFFF01200968471ECFFF01200968A82
:10FE8A00968871ECFFF01200968A968871ECFFF062
:10FE9A00120071ECFFF091CF01F001501200016ED7
:10FEAA0001C091FF71ECFFF012000F011493149539
:10FEBA001383138512000E01D3518F0B6009D36F80
:10FECA00D987120096BC6CEFFFF06FEFFFF0010EBE
:10FEDA0070EFFFF0000E12000E01C8A177EFFFF0DD
:10FEEA0079EFFFF071EFFFF0C8911200090E0E01D1
:10FEFA00B26F0F0EEB6F0A0EB36F100EEC6F12009B
:10FF0A0060ECFFF07BECFFF05AECFFF034ECFFF012
:10FF1A00000E026E4D0EA5ECFFF002C00DF003C0FC
:10FF2A000EF0030E0C6E8A0E0B6E560EE82EFED7DE
:10FF3A000B2EFCD70C2EFAD78DEFFFF000EF00F056
:10FF4A000A6E0A500A24FE0B066ED8800A34076E1F
:10FF5A0038ECFFF03CECFFF0065054ECFFF067EC95
:10FF6A00FFF00009D8B4BCEFFFF0BEEFFFF0C4EF1A
:10FF7A00FFF0000E036E000E026EFFEFFFF002505C
:10FF8A0054ECFFF067ECFFF00009D8B4CFEFFFF0B4
:10FF9A00D1EFFFF0D3EFFFF0BEEFFFF03CECFFF044
:10FFAA00075054ECFFF067ECFFF00009D8B4E0EF1B
:10FFBA00FFF0E2EFFFF0E4EFFFF0BEEFFFF02FEC0F
:10FFCA00FFF04EECFFF0086E44ECFFF02FECFFF070
:10FFDA004EECFFF0096E49ECFFF040ECFFF02DEC1F
:10FFEA00FFF00850056E046A09500424026E000EE0
:06FFFA000520036E120059
:020000040020DA
:10000000FFFFFFFFFFFFFFFFFFFFFFFFFFFFFFFF00
:10001000FFFFFFFFFFFFFFFFFFFFFFFFFFFFFFFFF0
:10002000FFFFFFFFFFFFFFFFFFFFFFFFFFFFFFFFE0
:10003000FFFFFFFFFFFFFFFFFFFFFFFFFFFFFFFFD0
:10004000FFFFFFFFFFFFFFFFFFFFFFFFFFFFFFFFC0
:10005000FFFFFFFFFFFFFFFFFFFFFFFFFFFFFFFFB0
:10006000FFFFFFFFFFFFFFFFFFFFFFFFFFFFFFFFA0
:10007000FFFFFFFFFFFFFFFFFFFFFFFFFFFFFFFF90
:10008000FFFFFFFFFFFFFFFFFFFFFFFFFFFFFFFF80
:10009000FFFFFFFFFFFFFFFFFFFFFFFFFFFFFFFF70
:1000A000FFFFFFFFFFFFFFFFFFFFFFFFFFFFFFFF60
:1000B000FFFFFFFFFFFFFFFFFFFFFFFFFFFFFFFF50
:1000C000FFFFFFFFFFFFFFFFFFFFFFFFFFFFFFFF40
:1000D000FFFFFFFFFFFFFFFFFFFFFFFFFFFFFFFF30
:1000E000FFFFFFFFFFFFFFFFFFFFFFFFFFFFFFFF20
:1000F000FFFFFFFFFFFFFFFFFFFFFFFFFFFFFFFF10
:020000040030CA
:0C000000FFFFFFFF9FFFFFFFFFFFFFFF60
:00000001FF
